{
  "_format": "hh-sol-artifact-1",
  "contractName": "V2",
  "sourceName": "contracts/V2.sol",
  "abi": [
    {
      "inputs": [
        {
          "internalType": "uint256",
          "name": "_value",
          "type": "uint256"
        }
      ],
      "name": "setValue",
      "outputs": [],
      "stateMutability": "nonpayable",
      "type": "function"
    },
    {
      "inputs": [],
      "name": "value",
      "outputs": [
        {
          "internalType": "uint256",
          "name": "",
          "type": "uint256"
        }
      ],
      "stateMutability": "view",
      "type": "function"
    }
  ],
  "bytecode": "0x608060405234801561001057600080fd5b506101bd806100206000396000f3fe608060405234801561001057600080fd5b50600436106100365760003560e01c80633fa4f2451461003b5780635524107714610059575b600080fd5b610043610075565b60405161005091906100ab565b60405180910390f35b610073600480360381019061006e91906100f7565b61007b565b005b60005481565b806000546100899190610153565b60008190555050565b6000819050919050565b6100a581610092565b82525050565b60006020820190506100c0600083018461009c565b92915050565b600080fd5b6100d481610092565b81146100df57600080fd5b50565b6000813590506100f1816100cb565b92915050565b60006020828403121561010d5761010c6100c6565b5b600061011b848285016100e2565b91505092915050565b7f4e487b7100000000000000000000000000000000000000000000000000000000600052601160045260246000fd5b600061015e82610092565b915061016983610092565b925082820190508082111561018157610180610124565b5b9291505056fea26469706673582212204b36205a3920503fbdee8837d846cbc3b4ec1935aa79a89019d6327a6ae98cb964736f6c63430008180033",
  "linkReferences": {},
  "deployedLinkReferences": {}
}