{
  "_format": "hh-sol-artifact-1",
  "contractName": "Proxy",
  "sourceName": "contracts/Proxy.sol",
  "abi": [
    {
      "inputs": [
        {
          "internalType": "address",
          "name": "_implementation",
          "type": "address"
        }
      ],
      "stateMutability": "nonpayable",
      "type": "constructor"
    },
    {
      "anonymous": false,
      "inputs": [
        {
          "indexed": true,
          "internalType": "address",
          "name": "previousAdmin",
          "type": "address"
        },
        {
          "indexed": true,
          "internalType": "address",
          "name": "newAdmin",
          "type": "address"
        }
      ],
      "name": "AdminTransferred",
      "type": "event"
    },
    {
      "stateMutability": "payable",
      "type": "fallback"
    },
    {
      "inputs": [
        {
          "internalType": "address",
          "name": "newAdmin",
          "type": "address"
        }
      ],
      "name": "adminTransfer",
      "outputs": [],
      "stateMutability": "nonpayable",
      "type": "function"
    },
    {
      "inputs": [],
      "name": "getAdmin",
      "outputs": [
        {
          "internalType": "address",
          "name": "",
          "type": "address"
        }
      ],
      "stateMutability": "view",
      "type": "function"
    },
    {
      "inputs": [],
      "name": "getAdminSlot",
      "outputs": [
        {
          "internalType": "bytes32",
          "name": "",
          "type": "bytes32"
        }
      ],
      "stateMutability": "view",
      "type": "function"
    },
    {
      "inputs": [],
      "name": "getImplementation",
      "outputs": [
        {
          "internalType": "address",
          "name": "",
          "type": "address"
        }
      ],
      "stateMutability": "view",
      "type": "function"
    },
    {
      "inputs": [],
      "name": "getImplementationSlot",
      "outputs": [
        {
          "internalType": "bytes32",
          "name": "",
          "type": "bytes32"
        }
      ],
      "stateMutability": "view",
      "type": "function"
    },
    {
      "inputs": [
        {
          "internalType": "address",
          "name": "newAddress",
          "type": "address"
        }
      ],
      "name": "upgrade",
      "outputs": [],
      "stateMutability": "nonpayable",
      "type": "function"
    },
    {
      "stateMutability": "payable",
      "type": "receive"
    }
  ],
  "bytecode": "0x60806040523480156200001157600080fd5b5060405162000c8638038062000c86833981810160405281019062000037919062000225565b8062000049816200019160201b60201c565b6200008b576040517f08c379a00000000000000000000000000000000000000000000000000000000081526004016200008290620002de565b60405180910390fd5b600073ffffffffffffffffffffffffffffffffffffffff168173ffffffffffffffffffffffffffffffffffffffff1603620000fd576040517f08c379a0000000000000000000000000000000000000000000000000000000008152600401620000f49062000376565b60405180910390fd5b6200014360017fafe5c93bc3806f697de5a3e1938d776e26791adca416f7de5d26c6942daa65f660001c620001339190620003d1565b60001b83620001b460201b60201c565b6200018960017f52e63f25879fa6321dd109b52ba158af8d6c19562106853d85b7600bea7a5d5860001c620001799190620003d1565b60001b33620001b460201b60201c565b50506200040c565b6000808273ffffffffffffffffffffffffffffffffffffffff163b119050919050565b8082555050565b600080fd5b600073ffffffffffffffffffffffffffffffffffffffff82169050919050565b6000620001ed82620001c0565b9050919050565b620001ff81620001e0565b81146200020b57600080fd5b50565b6000815190506200021f81620001f4565b92915050565b6000602082840312156200023e576200023d620001bb565b5b60006200024e848285016200020e565b91505092915050565b600082825260208201905092915050565b7f5f6e6577496d706c656d656e746174696f6e206973204e6f7420436f6e74726160008201527f6374416464726573732100000000000000000000000000000000000000000000602082015250565b6000620002c6602a8362000257565b9150620002d38262000268565b604082019050919050565b60006020820190508181036000830152620002f981620002b7565b9050919050565b7f5f6e6577496d706c656d656e746174696f6e2063616e27742042652061205a6560008201527f726f204164647265737300000000000000000000000000000000000000000000602082015250565b60006200035e602a8362000257565b91506200036b8262000300565b604082019050919050565b6000602082019050818103600083015262000391816200034f565b9050919050565b6000819050919050565b7f4e487b7100000000000000000000000000000000000000000000000000000000600052601160045260246000fd5b6000620003de8262000398565b9150620003eb8362000398565b9250828203905081811115620004065762000405620003a2565b5b92915050565b61086a806200041c6000396000f3fe6080604052600436106100595760003560e01c80630900f010146100a55780636e9960c3146100ce5780637a34c821146100f95780639234c1e1146101245780639ad5c59a1461014d578063aaf10f421461017857610060565b3661006057005b6100a361009e60017fafe5c93bc3806f697de5a3e1938d776e26791adca416f7de5d26c6942daa65f660001c6100969190610571565b60001b6101a3565b6101ae565b005b3480156100b157600080fd5b506100cc60048036038101906100c79190610608565b6101d5565b005b3480156100da57600080fd5b506100e36102d5565b6040516100f09190610644565b60405180910390f35b34801561010557600080fd5b5061010e610317565b60405161011b9190610678565b60405180910390f35b34801561013057600080fd5b5061014b60048036038101906101469190610608565b610359565b005b34801561015957600080fd5b506101626103d4565b60405161016f9190610678565b60405180910390f35b34801561018457600080fd5b5061018d610416565b60405161019a9190610644565b60405180910390f35b600081549050919050565b60405136600082376000803683855af43d806000843e81600081146101d1578184f35b8184fd5b6101dd610458565b806101e7816104cf565b610226576040517f08c379a000000000000000000000000000000000000000000000000000000000815260040161021d90610716565b60405180910390fd5b600073ffffffffffffffffffffffffffffffffffffffff168173ffffffffffffffffffffffffffffffffffffffff1603610295576040517f08c379a000000000000000000000000000000000000000000000000000000000815260040161028c906107a8565b60405180910390fd5b6102d160017fafe5c93bc3806f697de5a3e1938d776e26791adca416f7de5d26c6942daa65f660001c6102c89190610571565b60001b836104f2565b5050565b600061031260017f52e63f25879fa6321dd109b52ba158af8d6c19562106853d85b7600bea7a5d5860001c61030a9190610571565b60001b6101a3565b905090565b6000610321610458565b60017fafe5c93bc3806f697de5a3e1938d776e26791adca416f7de5d26c6942daa65f660001c6103519190610571565b60001b905090565b610361610458565b600061036b6102d5565b9050610376826104f9565b8173ffffffffffffffffffffffffffffffffffffffff168173ffffffffffffffffffffffffffffffffffffffff167ff8ccb027dfcd135e000e9d45e6cc2d662578a8825d4c45b5e32e0adf67e79ec660405160405180910390a35050565b60006103de610458565b60017fafe5c93bc3806f697de5a3e1938d776e26791adca416f7de5d26c6942daa65f660001c61040e9190610571565b60001b905090565b600061045360017fafe5c93bc3806f697de5a3e1938d776e26791adca416f7de5d26c6942daa65f660001c61044b9190610571565b60001b6101a3565b905090565b3373ffffffffffffffffffffffffffffffffffffffff166104776102d5565b73ffffffffffffffffffffffffffffffffffffffff16146104cd576040517f08c379a00000000000000000000000000000000000000000000000000000000081526004016104c490610814565b60405180910390fd5b565b6000808273ffffffffffffffffffffffffffffffffffffffff163b119050919050565b8082555050565b61053560017f52e63f25879fa6321dd109b52ba158af8d6c19562106853d85b7600bea7a5d5860001c61052c9190610571565b60001b826104f2565b50565b6000819050919050565b7f4e487b7100000000000000000000000000000000000000000000000000000000600052601160045260246000fd5b600061057c82610538565b915061058783610538565b925082820390508181111561059f5761059e610542565b5b92915050565b600080fd5b600073ffffffffffffffffffffffffffffffffffffffff82169050919050565b60006105d5826105aa565b9050919050565b6105e5816105ca565b81146105f057600080fd5b50565b600081359050610602816105dc565b92915050565b60006020828403121561061e5761061d6105a5565b5b600061062c848285016105f3565b91505092915050565b61063e816105ca565b82525050565b60006020820190506106596000830184610635565b92915050565b6000819050919050565b6106728161065f565b82525050565b600060208201905061068d6000830184610669565b92915050565b600082825260208201905092915050565b7f5f6e6577496d706c656d656e746174696f6e206973204e6f7420436f6e74726160008201527f6374416464726573732100000000000000000000000000000000000000000000602082015250565b6000610700602a83610693565b915061070b826106a4565b604082019050919050565b6000602082019050818103600083015261072f816106f3565b9050919050565b7f5f6e6577496d706c656d656e746174696f6e2063616e27742042652061205a6560008201527f726f204164647265737300000000000000000000000000000000000000000000602082015250565b6000610792602a83610693565b915061079d82610736565b604082019050919050565b600060208201905081810360008301526107c181610785565b9050919050565b7f43616c6c6572206973206e6f74207468652061646d696e000000000000000000600082015250565b60006107fe601783610693565b9150610809826107c8565b602082019050919050565b6000602082019050818103600083015261082d816107f1565b905091905056fea264697066735822122026c0599168da8bef0b50d413974934c51a5f33ec1f0b7f1d6a457319306a049864736f6c63430008180033",
  "linkReferences": {},
  "deployedLinkReferences": {}
}