{"contracts/Proxy.sol":{"Proxy":{"abi":[{"inputs":[{"internalType":"address","name":"_implementation","type":"address"}],"stateMutability":"nonpayable","type":"constructor"},{"anonymous":false,"inputs":[{"indexed":true,"internalType":"address","name":"previousAdmin","type":"address"},{"indexed":true,"internalType":"address","name":"newAdmin","type":"address"}],"name":"AdminTransferred","type":"event"},{"stateMutability":"payable","type":"fallback"},{"inputs":[{"internalType":"address","name":"newAdmin","type":"address"}],"name":"adminTransfer","outputs":[],"stateMutability":"nonpayable","type":"function"},{"inputs":[],"name":"getAdmin","outputs":[{"internalType":"address","name":"","type":"address"}],"stateMutability":"view","type":"function"},{"inputs":[],"name":"getAdminSlot","outputs":[{"internalType":"bytes32","name":"","type":"bytes32"}],"stateMutability":"pure","type":"function"},{"inputs":[],"name":"getImplementation","outputs":[{"internalType":"address","name":"","type":"address"}],"stateMutability":"view","type":"function"},{"inputs":[],"name":"getImplementationSlot","outputs":[{"internalType":"bytes32","name":"","type":"bytes32"}],"stateMutability":"pure","type":"function"},{"inputs":[{"internalType":"address","name":"newAddress","type":"address"}],"name":"upgrade","outputs":[],"stateMutability":"nonpayable","type":"function"},{"stateMutability":"payable","type":"receive"}],"evm":{"bytecode":{"linkReferences":{},"object":"60806040523480156200001157600080fd5b5060405162000c6738038062000c67833981810160405281019062000037919062000225565b8062000049816200019160201b60201c565b6200008b576040517f08c379a00000000000000000000000000000000000000000000000000000000081526004016200008290620002de565b60405180910390fd5b600073ffffffffffffffffffffffffffffffffffffffff168173ffffffffffffffffffffffffffffffffffffffff1603620000fd576040517f08c379a0000000000000000000000000000000000000000000000000000000008152600401620000f49062000376565b60405180910390fd5b6200014360017fafe5c93bc3806f697de5a3e1938d776e26791adca416f7de5d26c6942daa65f660001c620001339190620003d1565b60001b83620001b460201b60201c565b6200018960017f52e63f25879fa6321dd109b52ba158af8d6c19562106853d85b7600bea7a5d5860001c620001799190620003d1565b60001b33620001b460201b60201c565b50506200040c565b6000808273ffffffffffffffffffffffffffffffffffffffff163b119050919050565b8082555050565b600080fd5b600073ffffffffffffffffffffffffffffffffffffffff82169050919050565b6000620001ed82620001c0565b9050919050565b620001ff81620001e0565b81146200020b57600080fd5b50565b6000815190506200021f81620001f4565b92915050565b6000602082840312156200023e576200023d620001bb565b5b60006200024e848285016200020e565b91505092915050565b600082825260208201905092915050565b7f5f6e6577496d706c656d656e746174696f6e206973204e6f7420436f6e74726160008201527f6374416464726573732100000000000000000000000000000000000000000000602082015250565b6000620002c6602a8362000257565b9150620002d38262000268565b604082019050919050565b60006020820190508181036000830152620002f981620002b7565b9050919050565b7f5f6e6577496d706c656d656e746174696f6e2063616e27742042652061205a6560008201527f726f204164647265737300000000000000000000000000000000000000000000602082015250565b60006200035e602a8362000257565b91506200036b8262000300565b604082019050919050565b6000602082019050818103600083015262000391816200034f565b9050919050565b6000819050919050565b7f4e487b7100000000000000000000000000000000000000000000000000000000600052601160045260246000fd5b6000620003de8262000398565b9150620003eb8362000398565b9250828203905081811115620004065762000405620003a2565b5b92915050565b61084b806200041c6000396000f3fe6080604052600436106100595760003560e01c80630900f010146100a55780636e9960c3146100ce5780637a34c821146100f95780639234c1e1146101245780639ad5c59a1461014d578063aaf10f421461017857610060565b3661006057005b6100a361009e60017fafe5c93bc3806f697de5a3e1938d776e26791adca416f7de5d26c6942daa65f660001c6100969190610552565b60001b6101a3565b6101ae565b005b3480156100b157600080fd5b506100cc60048036038101906100c791906105e9565b6101d5565b005b3480156100da57600080fd5b506100e36102c6565b6040516100f09190610625565b60405180910390f35b34801561010557600080fd5b5061010e610308565b60405161011b9190610659565b60405180910390f35b34801561013057600080fd5b5061014b600480360381019061014691906105e9565b610342565b005b34801561015957600080fd5b506101626103bd565b60405161016f9190610659565b60405180910390f35b34801561018457600080fd5b5061018d6103f7565b60405161019a9190610625565b60405180910390f35b600081549050919050565b60405136600082376000803683855af43d806000843e81600081146101d1578184f35b8184fd5b6101dd610439565b806101e7816104b0565b610226576040517f08c379a000000000000000000000000000000000000000000000000000000000815260040161021d906106f7565b60405180910390fd5b600073ffffffffffffffffffffffffffffffffffffffff168173ffffffffffffffffffffffffffffffffffffffff1603610295576040517f08c379a000000000000000000000000000000000000000000000000000000000815260040161028c90610789565b60405180910390fd5b6102c27fafe5c93bc3806f697de5a3e1938d776e26791adca416f7de5d26c6942daa65f560001b836104d3565b5050565b600061030360017f52e63f25879fa6321dd109b52ba158af8d6c19562106853d85b7600bea7a5d5860001c6102fb9190610552565b60001b6101a3565b905090565b600060017fafe5c93bc3806f697de5a3e1938d776e26791adca416f7de5d26c6942daa65f660001c61033a9190610552565b60001b905090565b61034a610439565b60006103546102c6565b905061035f826104da565b8173ffffffffffffffffffffffffffffffffffffffff168173ffffffffffffffffffffffffffffffffffffffff167ff8ccb027dfcd135e000e9d45e6cc2d662578a8825d4c45b5e32e0adf67e79ec660405160405180910390a35050565b600060017fafe5c93bc3806f697de5a3e1938d776e26791adca416f7de5d26c6942daa65f660001c6103ef9190610552565b60001b905090565b600061043460017fafe5c93bc3806f697de5a3e1938d776e26791adca416f7de5d26c6942daa65f660001c61042c9190610552565b60001b6101a3565b905090565b3373ffffffffffffffffffffffffffffffffffffffff166104586102c6565b73ffffffffffffffffffffffffffffffffffffffff16146104ae576040517f08c379a00000000000000000000000000000000000000000000000000000000081526004016104a5906107f5565b60405180910390fd5b565b6000808273ffffffffffffffffffffffffffffffffffffffff163b119050919050565b8082555050565b61051660017f52e63f25879fa6321dd109b52ba158af8d6c19562106853d85b7600bea7a5d5860001c61050d9190610552565b60001b826104d3565b50565b6000819050919050565b7f4e487b7100000000000000000000000000000000000000000000000000000000600052601160045260246000fd5b600061055d82610519565b915061056883610519565b92508282039050818111156105805761057f610523565b5b92915050565b600080fd5b600073ffffffffffffffffffffffffffffffffffffffff82169050919050565b60006105b68261058b565b9050919050565b6105c6816105ab565b81146105d157600080fd5b50565b6000813590506105e3816105bd565b92915050565b6000602082840312156105ff576105fe610586565b5b600061060d848285016105d4565b91505092915050565b61061f816105ab565b82525050565b600060208201905061063a6000830184610616565b92915050565b6000819050919050565b61065381610640565b82525050565b600060208201905061066e600083018461064a565b92915050565b600082825260208201905092915050565b7f5f6e6577496d706c656d656e746174696f6e206973204e6f7420436f6e74726160008201527f6374416464726573732100000000000000000000000000000000000000000000602082015250565b60006106e1602a83610674565b91506106ec82610685565b604082019050919050565b60006020820190508181036000830152610710816106d4565b9050919050565b7f5f6e6577496d706c656d656e746174696f6e2063616e27742042652061205a6560008201527f726f204164647265737300000000000000000000000000000000000000000000602082015250565b6000610773602a83610674565b915061077e82610717565b604082019050919050565b600060208201905081810360008301526107a281610766565b9050919050565b7f43616c6c6572206973206e6f74207468652061646d696e000000000000000000600082015250565b60006107df601783610674565b91506107ea826107a9565b602082019050919050565b6000602082019050818103600083015261080e816107d2565b905091905056fea2646970667358221220d8ccf08226a464d1b57a64992d5385915780c18dccd3288dd0499a02eeae53ed64736f6c63430008180033","opcodes":"PUSH1 0x80 PUSH1 0x40 MSTORE CALLVALUE DUP1 ISZERO PUSH3 0x11 JUMPI PUSH1 0x0 DUP1 REVERT JUMPDEST POP PUSH1 0x40 MLOAD PUSH3 0xC67 CODESIZE SUB DUP1 PUSH3 0xC67 DUP4 CODECOPY DUP2 DUP2 ADD PUSH1 0x40 MSTORE DUP2 ADD SWAP1 PUSH3 0x37 SWAP2 SWAP1 PUSH3 0x225 JUMP JUMPDEST DUP1 PUSH3 0x49 DUP2 PUSH3 0x191 PUSH1 0x20 SHL PUSH1 0x20 SHR JUMP JUMPDEST PUSH3 0x8B JUMPI PUSH1 0x40 MLOAD PUSH32 0x8C379A000000000000000000000000000000000000000000000000000000000 DUP2 MSTORE PUSH1 0x4 ADD PUSH3 0x82 SWAP1 PUSH3 0x2DE JUMP JUMPDEST PUSH1 0x40 MLOAD DUP1 SWAP2 SUB SWAP1 REVERT JUMPDEST PUSH1 0x0 PUSH20 0xFFFFFFFFFFFFFFFFFFFFFFFFFFFFFFFFFFFFFFFF AND DUP2 PUSH20 0xFFFFFFFFFFFFFFFFFFFFFFFFFFFFFFFFFFFFFFFF AND SUB PUSH3 0xFD JUMPI PUSH1 0x40 MLOAD PUSH32 0x8C379A000000000000000000000000000000000000000000000000000000000 DUP2 MSTORE PUSH1 0x4 ADD PUSH3 0xF4 SWAP1 PUSH3 0x376 JUMP JUMPDEST PUSH1 0x40 MLOAD DUP1 SWAP2 SUB SWAP1 REVERT JUMPDEST PUSH3 0x143 PUSH1 0x1 PUSH32 0xAFE5C93BC3806F697DE5A3E1938D776E26791ADCA416F7DE5D26C6942DAA65F6 PUSH1 0x0 SHR PUSH3 0x133 SWAP2 SWAP1 PUSH3 0x3D1 JUMP JUMPDEST PUSH1 0x0 SHL DUP4 PUSH3 0x1B4 PUSH1 0x20 SHL PUSH1 0x20 SHR JUMP JUMPDEST PUSH3 0x189 PUSH1 0x1 PUSH32 0x52E63F25879FA6321DD109B52BA158AF8D6C19562106853D85B7600BEA7A5D58 PUSH1 0x0 SHR PUSH3 0x179 SWAP2 SWAP1 PUSH3 0x3D1 JUMP JUMPDEST PUSH1 0x0 SHL CALLER PUSH3 0x1B4 PUSH1 0x20 SHL PUSH1 0x20 SHR JUMP JUMPDEST POP POP PUSH3 0x40C JUMP JUMPDEST PUSH1 0x0 DUP1 DUP3 PUSH20 0xFFFFFFFFFFFFFFFFFFFFFFFFFFFFFFFFFFFFFFFF AND EXTCODESIZE GT SWAP1 POP SWAP2 SWAP1 POP JUMP JUMPDEST DUP1 DUP3 SSTORE POP POP JUMP JUMPDEST PUSH1 0x0 DUP1 REVERT JUMPDEST PUSH1 0x0 PUSH20 0xFFFFFFFFFFFFFFFFFFFFFFFFFFFFFFFFFFFFFFFF DUP3 AND SWAP1 POP SWAP2 SWAP1 POP JUMP JUMPDEST PUSH1 0x0 PUSH3 0x1ED DUP3 PUSH3 0x1C0 JUMP JUMPDEST SWAP1 POP SWAP2 SWAP1 POP JUMP JUMPDEST PUSH3 0x1FF DUP2 PUSH3 0x1E0 JUMP JUMPDEST DUP2 EQ PUSH3 0x20B JUMPI PUSH1 0x0 DUP1 REVERT JUMPDEST POP JUMP JUMPDEST PUSH1 0x0 DUP2 MLOAD SWAP1 POP PUSH3 0x21F DUP2 PUSH3 0x1F4 JUMP JUMPDEST SWAP3 SWAP2 POP POP JUMP JUMPDEST PUSH1 0x0 PUSH1 0x20 DUP3 DUP5 SUB SLT ISZERO PUSH3 0x23E JUMPI PUSH3 0x23D PUSH3 0x1BB JUMP JUMPDEST JUMPDEST PUSH1 0x0 PUSH3 0x24E DUP5 DUP3 DUP6 ADD PUSH3 0x20E JUMP JUMPDEST SWAP2 POP POP SWAP3 SWAP2 POP POP JUMP JUMPDEST PUSH1 0x0 DUP3 DUP3 MSTORE PUSH1 0x20 DUP3 ADD SWAP1 POP SWAP3 SWAP2 POP POP JUMP JUMPDEST PUSH32 0x5F6E6577496D706C656D656E746174696F6E206973204E6F7420436F6E747261 PUSH1 0x0 DUP3 ADD MSTORE PUSH32 0x6374416464726573732100000000000000000000000000000000000000000000 PUSH1 0x20 DUP3 ADD MSTORE POP JUMP JUMPDEST PUSH1 0x0 PUSH3 0x2C6 PUSH1 0x2A DUP4 PUSH3 0x257 JUMP JUMPDEST SWAP2 POP PUSH3 0x2D3 DUP3 PUSH3 0x268 JUMP JUMPDEST PUSH1 0x40 DUP3 ADD SWAP1 POP SWAP2 SWAP1 POP JUMP JUMPDEST PUSH1 0x0 PUSH1 0x20 DUP3 ADD SWAP1 POP DUP2 DUP2 SUB PUSH1 0x0 DUP4 ADD MSTORE PUSH3 0x2F9 DUP2 PUSH3 0x2B7 JUMP JUMPDEST SWAP1 POP SWAP2 SWAP1 POP JUMP JUMPDEST PUSH32 0x5F6E6577496D706C656D656E746174696F6E2063616E27742042652061205A65 PUSH1 0x0 DUP3 ADD MSTORE PUSH32 0x726F204164647265737300000000000000000000000000000000000000000000 PUSH1 0x20 DUP3 ADD MSTORE POP JUMP JUMPDEST PUSH1 0x0 PUSH3 0x35E PUSH1 0x2A DUP4 PUSH3 0x257 JUMP JUMPDEST SWAP2 POP PUSH3 0x36B DUP3 PUSH3 0x300 JUMP JUMPDEST PUSH1 0x40 DUP3 ADD SWAP1 POP SWAP2 SWAP1 POP JUMP JUMPDEST PUSH1 0x0 PUSH1 0x20 DUP3 ADD SWAP1 POP DUP2 DUP2 SUB PUSH1 0x0 DUP4 ADD MSTORE PUSH3 0x391 DUP2 PUSH3 0x34F JUMP JUMPDEST SWAP1 POP SWAP2 SWAP1 POP JUMP JUMPDEST PUSH1 0x0 DUP2 SWAP1 POP SWAP2 SWAP1 POP JUMP JUMPDEST PUSH32 0x4E487B7100000000000000000000000000000000000000000000000000000000 PUSH1 0x0 MSTORE PUSH1 0x11 PUSH1 0x4 MSTORE PUSH1 0x24 PUSH1 0x0 REVERT JUMPDEST PUSH1 0x0 PUSH3 0x3DE DUP3 PUSH3 0x398 JUMP JUMPDEST SWAP2 POP PUSH3 0x3EB DUP4 PUSH3 0x398 JUMP JUMPDEST SWAP3 POP DUP3 DUP3 SUB SWAP1 POP DUP2 DUP2 GT ISZERO PUSH3 0x406 JUMPI PUSH3 0x405 PUSH3 0x3A2 JUMP JUMPDEST JUMPDEST SWAP3 SWAP2 POP POP JUMP JUMPDEST PUSH2 0x84B DUP1 PUSH3 0x41C PUSH1 0x0 CODECOPY PUSH1 0x0 RETURN INVALID PUSH1 0x80 PUSH1 0x40 MSTORE PUSH1 0x4 CALLDATASIZE LT PUSH2 0x59 JUMPI PUSH1 0x0 CALLDATALOAD PUSH1 0xE0 SHR DUP1 PUSH4 0x900F010 EQ PUSH2 0xA5 JUMPI DUP1 PUSH4 0x6E9960C3 EQ PUSH2 0xCE JUMPI DUP1 PUSH4 0x7A34C821 EQ PUSH2 0xF9 JUMPI DUP1 PUSH4 0x9234C1E1 EQ PUSH2 0x124 JUMPI DUP1 PUSH4 0x9AD5C59A EQ PUSH2 0x14D JUMPI DUP1 PUSH4 0xAAF10F42 EQ PUSH2 0x178 JUMPI PUSH2 0x60 JUMP JUMPDEST CALLDATASIZE PUSH2 0x60 JUMPI STOP JUMPDEST PUSH2 0xA3 PUSH2 0x9E PUSH1 0x1 PUSH32 0xAFE5C93BC3806F697DE5A3E1938D776E26791ADCA416F7DE5D26C6942DAA65F6 PUSH1 0x0 SHR PUSH2 0x96 SWAP2 SWAP1 PUSH2 0x552 JUMP JUMPDEST PUSH1 0x0 SHL PUSH2 0x1A3 JUMP JUMPDEST PUSH2 0x1AE JUMP JUMPDEST STOP JUMPDEST CALLVALUE DUP1 ISZERO PUSH2 0xB1 JUMPI PUSH1 0x0 DUP1 REVERT JUMPDEST POP PUSH2 0xCC PUSH1 0x4 DUP1 CALLDATASIZE SUB DUP2 ADD SWAP1 PUSH2 0xC7 SWAP2 SWAP1 PUSH2 0x5E9 JUMP JUMPDEST PUSH2 0x1D5 JUMP JUMPDEST STOP JUMPDEST CALLVALUE DUP1 ISZERO PUSH2 0xDA JUMPI PUSH1 0x0 DUP1 REVERT JUMPDEST POP PUSH2 0xE3 PUSH2 0x2C6 JUMP JUMPDEST PUSH1 0x40 MLOAD PUSH2 0xF0 SWAP2 SWAP1 PUSH2 0x625 JUMP JUMPDEST PUSH1 0x40 MLOAD DUP1 SWAP2 SUB SWAP1 RETURN JUMPDEST CALLVALUE DUP1 ISZERO PUSH2 0x105 JUMPI PUSH1 0x0 DUP1 REVERT JUMPDEST POP PUSH2 0x10E PUSH2 0x308 JUMP JUMPDEST PUSH1 0x40 MLOAD PUSH2 0x11B SWAP2 SWAP1 PUSH2 0x659 JUMP JUMPDEST PUSH1 0x40 MLOAD DUP1 SWAP2 SUB SWAP1 RETURN JUMPDEST CALLVALUE DUP1 ISZERO PUSH2 0x130 JUMPI PUSH1 0x0 DUP1 REVERT JUMPDEST POP PUSH2 0x14B PUSH1 0x4 DUP1 CALLDATASIZE SUB DUP2 ADD SWAP1 PUSH2 0x146 SWAP2 SWAP1 PUSH2 0x5E9 JUMP JUMPDEST PUSH2 0x342 JUMP JUMPDEST STOP JUMPDEST CALLVALUE DUP1 ISZERO PUSH2 0x159 JUMPI PUSH1 0x0 DUP1 REVERT JUMPDEST POP PUSH2 0x162 PUSH2 0x3BD JUMP JUMPDEST PUSH1 0x40 MLOAD PUSH2 0x16F SWAP2 SWAP1 PUSH2 0x659 JUMP JUMPDEST PUSH1 0x40 MLOAD DUP1 SWAP2 SUB SWAP1 RETURN JUMPDEST CALLVALUE DUP1 ISZERO PUSH2 0x184 JUMPI PUSH1 0x0 DUP1 REVERT JUMPDEST POP PUSH2 0x18D PUSH2 0x3F7 JUMP JUMPDEST PUSH1 0x40 MLOAD PUSH2 0x19A SWAP2 SWAP1 PUSH2 0x625 JUMP JUMPDEST PUSH1 0x40 MLOAD DUP1 SWAP2 SUB SWAP1 RETURN JUMPDEST PUSH1 0x0 DUP2 SLOAD SWAP1 POP SWAP2 SWAP1 POP JUMP JUMPDEST PUSH1 0x40 MLOAD CALLDATASIZE PUSH1 0x0 DUP3 CALLDATACOPY PUSH1 0x0 DUP1 CALLDATASIZE DUP4 DUP6 GAS DELEGATECALL RETURNDATASIZE DUP1 PUSH1 0x0 DUP5 RETURNDATACOPY DUP2 PUSH1 0x0 DUP2 EQ PUSH2 0x1D1 JUMPI DUP2 DUP5 RETURN JUMPDEST DUP2 DUP5 REVERT JUMPDEST PUSH2 0x1DD PUSH2 0x439 JUMP JUMPDEST DUP1 PUSH2 0x1E7 DUP2 PUSH2 0x4B0 JUMP JUMPDEST PUSH2 0x226 JUMPI PUSH1 0x40 MLOAD PUSH32 0x8C379A000000000000000000000000000000000000000000000000000000000 DUP2 MSTORE PUSH1 0x4 ADD PUSH2 0x21D SWAP1 PUSH2 0x6F7 JUMP JUMPDEST PUSH1 0x40 MLOAD DUP1 SWAP2 SUB SWAP1 REVERT JUMPDEST PUSH1 0x0 PUSH20 0xFFFFFFFFFFFFFFFFFFFFFFFFFFFFFFFFFFFFFFFF AND DUP2 PUSH20 0xFFFFFFFFFFFFFFFFFFFFFFFFFFFFFFFFFFFFFFFF AND SUB PUSH2 0x295 JUMPI PUSH1 0x40 MLOAD PUSH32 0x8C379A000000000000000000000000000000000000000000000000000000000 DUP2 MSTORE PUSH1 0x4 ADD PUSH2 0x28C SWAP1 PUSH2 0x789 JUMP JUMPDEST PUSH1 0x40 MLOAD DUP1 SWAP2 SUB SWAP1 REVERT JUMPDEST PUSH2 0x2C2 PUSH32 0xAFE5C93BC3806F697DE5A3E1938D776E26791ADCA416F7DE5D26C6942DAA65F5 PUSH1 0x0 SHL DUP4 PUSH2 0x4D3 JUMP JUMPDEST POP POP JUMP JUMPDEST PUSH1 0x0 PUSH2 0x303 PUSH1 0x1 PUSH32 0x52E63F25879FA6321DD109B52BA158AF8D6C19562106853D85B7600BEA7A5D58 PUSH1 0x0 SHR PUSH2 0x2FB SWAP2 SWAP1 PUSH2 0x552 JUMP JUMPDEST PUSH1 0x0 SHL PUSH2 0x1A3 JUMP JUMPDEST SWAP1 POP SWAP1 JUMP JUMPDEST PUSH1 0x0 PUSH1 0x1 PUSH32 0xAFE5C93BC3806F697DE5A3E1938D776E26791ADCA416F7DE5D26C6942DAA65F6 PUSH1 0x0 SHR PUSH2 0x33A SWAP2 SWAP1 PUSH2 0x552 JUMP JUMPDEST PUSH1 0x0 SHL SWAP1 POP SWAP1 JUMP JUMPDEST PUSH2 0x34A PUSH2 0x439 JUMP JUMPDEST PUSH1 0x0 PUSH2 0x354 PUSH2 0x2C6 JUMP JUMPDEST SWAP1 POP PUSH2 0x35F DUP3 PUSH2 0x4DA JUMP JUMPDEST DUP2 PUSH20 0xFFFFFFFFFFFFFFFFFFFFFFFFFFFFFFFFFFFFFFFF AND DUP2 PUSH20 0xFFFFFFFFFFFFFFFFFFFFFFFFFFFFFFFFFFFFFFFF AND PUSH32 0xF8CCB027DFCD135E000E9D45E6CC2D662578A8825D4C45B5E32E0ADF67E79EC6 PUSH1 0x40 MLOAD PUSH1 0x40 MLOAD DUP1 SWAP2 SUB SWAP1 LOG3 POP POP JUMP JUMPDEST PUSH1 0x0 PUSH1 0x1 PUSH32 0xAFE5C93BC3806F697DE5A3E1938D776E26791ADCA416F7DE5D26C6942DAA65F6 PUSH1 0x0 SHR PUSH2 0x3EF SWAP2 SWAP1 PUSH2 0x552 JUMP JUMPDEST PUSH1 0x0 SHL SWAP1 POP SWAP1 JUMP JUMPDEST PUSH1 0x0 PUSH2 0x434 PUSH1 0x1 PUSH32 0xAFE5C93BC3806F697DE5A3E1938D776E26791ADCA416F7DE5D26C6942DAA65F6 PUSH1 0x0 SHR PUSH2 0x42C SWAP2 SWAP1 PUSH2 0x552 JUMP JUMPDEST PUSH1 0x0 SHL PUSH2 0x1A3 JUMP JUMPDEST SWAP1 POP SWAP1 JUMP JUMPDEST CALLER PUSH20 0xFFFFFFFFFFFFFFFFFFFFFFFFFFFFFFFFFFFFFFFF AND PUSH2 0x458 PUSH2 0x2C6 JUMP JUMPDEST PUSH20 0xFFFFFFFFFFFFFFFFFFFFFFFFFFFFFFFFFFFFFFFF AND EQ PUSH2 0x4AE JUMPI PUSH1 0x40 MLOAD PUSH32 0x8C379A000000000000000000000000000000000000000000000000000000000 DUP2 MSTORE PUSH1 0x4 ADD PUSH2 0x4A5 SWAP1 PUSH2 0x7F5 JUMP JUMPDEST PUSH1 0x40 MLOAD DUP1 SWAP2 SUB SWAP1 REVERT JUMPDEST JUMP JUMPDEST PUSH1 0x0 DUP1 DUP3 PUSH20 0xFFFFFFFFFFFFFFFFFFFFFFFFFFFFFFFFFFFFFFFF AND EXTCODESIZE GT SWAP1 POP SWAP2 SWAP1 POP JUMP JUMPDEST DUP1 DUP3 SSTORE POP POP JUMP JUMPDEST PUSH2 0x516 PUSH1 0x1 PUSH32 0x52E63F25879FA6321DD109B52BA158AF8D6C19562106853D85B7600BEA7A5D58 PUSH1 0x0 SHR PUSH2 0x50D SWAP2 SWAP1 PUSH2 0x552 JUMP JUMPDEST PUSH1 0x0 SHL DUP3 PUSH2 0x4D3 JUMP JUMPDEST POP JUMP JUMPDEST PUSH1 0x0 DUP2 SWAP1 POP SWAP2 SWAP1 POP JUMP JUMPDEST PUSH32 0x4E487B7100000000000000000000000000000000000000000000000000000000 PUSH1 0x0 MSTORE PUSH1 0x11 PUSH1 0x4 MSTORE PUSH1 0x24 PUSH1 0x0 REVERT JUMPDEST PUSH1 0x0 PUSH2 0x55D DUP3 PUSH2 0x519 JUMP JUMPDEST SWAP2 POP PUSH2 0x568 DUP4 PUSH2 0x519 JUMP JUMPDEST SWAP3 POP DUP3 DUP3 SUB SWAP1 POP DUP2 DUP2 GT ISZERO PUSH2 0x580 JUMPI PUSH2 0x57F PUSH2 0x523 JUMP JUMPDEST JUMPDEST SWAP3 SWAP2 POP POP JUMP JUMPDEST PUSH1 0x0 DUP1 REVERT JUMPDEST PUSH1 0x0 PUSH20 0xFFFFFFFFFFFFFFFFFFFFFFFFFFFFFFFFFFFFFFFF DUP3 AND SWAP1 POP SWAP2 SWAP1 POP JUMP JUMPDEST PUSH1 0x0 PUSH2 0x5B6 DUP3 PUSH2 0x58B JUMP JUMPDEST SWAP1 POP SWAP2 SWAP1 POP JUMP JUMPDEST PUSH2 0x5C6 DUP2 PUSH2 0x5AB JUMP JUMPDEST DUP2 EQ PUSH2 0x5D1 JUMPI PUSH1 0x0 DUP1 REVERT JUMPDEST POP JUMP JUMPDEST PUSH1 0x0 DUP2 CALLDATALOAD SWAP1 POP PUSH2 0x5E3 DUP2 PUSH2 0x5BD JUMP JUMPDEST SWAP3 SWAP2 POP POP JUMP JUMPDEST PUSH1 0x0 PUSH1 0x20 DUP3 DUP5 SUB SLT ISZERO PUSH2 0x5FF JUMPI PUSH2 0x5FE PUSH2 0x586 JUMP JUMPDEST JUMPDEST PUSH1 0x0 PUSH2 0x60D DUP5 DUP3 DUP6 ADD PUSH2 0x5D4 JUMP JUMPDEST SWAP2 POP POP SWAP3 SWAP2 POP POP JUMP JUMPDEST PUSH2 0x61F DUP2 PUSH2 0x5AB JUMP JUMPDEST DUP3 MSTORE POP POP JUMP JUMPDEST PUSH1 0x0 PUSH1 0x20 DUP3 ADD SWAP1 POP PUSH2 0x63A PUSH1 0x0 DUP4 ADD DUP5 PUSH2 0x616 JUMP JUMPDEST SWAP3 SWAP2 POP POP JUMP JUMPDEST PUSH1 0x0 DUP2 SWAP1 POP SWAP2 SWAP1 POP JUMP JUMPDEST PUSH2 0x653 DUP2 PUSH2 0x640 JUMP JUMPDEST DUP3 MSTORE POP POP JUMP JUMPDEST PUSH1 0x0 PUSH1 0x20 DUP3 ADD SWAP1 POP PUSH2 0x66E PUSH1 0x0 DUP4 ADD DUP5 PUSH2 0x64A JUMP JUMPDEST SWAP3 SWAP2 POP POP JUMP JUMPDEST PUSH1 0x0 DUP3 DUP3 MSTORE PUSH1 0x20 DUP3 ADD SWAP1 POP SWAP3 SWAP2 POP POP JUMP JUMPDEST PUSH32 0x5F6E6577496D706C656D656E746174696F6E206973204E6F7420436F6E747261 PUSH1 0x0 DUP3 ADD MSTORE PUSH32 0x6374416464726573732100000000000000000000000000000000000000000000 PUSH1 0x20 DUP3 ADD MSTORE POP JUMP JUMPDEST PUSH1 0x0 PUSH2 0x6E1 PUSH1 0x2A DUP4 PUSH2 0x674 JUMP JUMPDEST SWAP2 POP PUSH2 0x6EC DUP3 PUSH2 0x685 JUMP JUMPDEST PUSH1 0x40 DUP3 ADD SWAP1 POP SWAP2 SWAP1 POP JUMP JUMPDEST PUSH1 0x0 PUSH1 0x20 DUP3 ADD SWAP1 POP DUP2 DUP2 SUB PUSH1 0x0 DUP4 ADD MSTORE PUSH2 0x710 DUP2 PUSH2 0x6D4 JUMP JUMPDEST SWAP1 POP SWAP2 SWAP1 POP JUMP JUMPDEST PUSH32 0x5F6E6577496D706C656D656E746174696F6E2063616E27742042652061205A65 PUSH1 0x0 DUP3 ADD MSTORE PUSH32 0x726F204164647265737300000000000000000000000000000000000000000000 PUSH1 0x20 DUP3 ADD MSTORE POP JUMP JUMPDEST PUSH1 0x0 PUSH2 0x773 PUSH1 0x2A DUP4 PUSH2 0x674 JUMP JUMPDEST SWAP2 POP PUSH2 0x77E DUP3 PUSH2 0x717 JUMP JUMPDEST PUSH1 0x40 DUP3 ADD SWAP1 POP SWAP2 SWAP1 POP JUMP JUMPDEST PUSH1 0x0 PUSH1 0x20 DUP3 ADD SWAP1 POP DUP2 DUP2 SUB PUSH1 0x0 DUP4 ADD MSTORE PUSH2 0x7A2 DUP2 PUSH2 0x766 JUMP JUMPDEST SWAP1 POP SWAP2 SWAP1 POP JUMP JUMPDEST PUSH32 0x43616C6C6572206973206E6F74207468652061646D696E000000000000000000 PUSH1 0x0 DUP3 ADD MSTORE POP JUMP JUMPDEST PUSH1 0x0 PUSH2 0x7DF PUSH1 0x17 DUP4 PUSH2 0x674 JUMP JUMPDEST SWAP2 POP PUSH2 0x7EA DUP3 PUSH2 0x7A9 JUMP JUMPDEST PUSH1 0x20 DUP3 ADD SWAP1 POP SWAP2 SWAP1 POP JUMP JUMPDEST PUSH1 0x0 PUSH1 0x20 DUP3 ADD SWAP1 POP DUP2 DUP2 SUB PUSH1 0x0 DUP4 ADD MSTORE PUSH2 0x80E DUP2 PUSH2 0x7D2 JUMP JUMPDEST SWAP1 POP SWAP2 SWAP1 POP JUMP INVALID LOG2 PUSH5 0x6970667358 0x22 SLT KECCAK256 0xD8 0xCC CREATE DUP3 0x26 LOG4 PUSH5 0xD1B57A6499 0x2D MSTORE8 DUP6 SWAP2 JUMPI DUP1 0xC1 DUP14 0xCC 0xD3 0x28 DUP14 0xD0 BLOBHASH SWAP11 MUL 0xEE 0xAE MSTORE8 0xED PUSH5 0x736F6C6343 STOP ADDMOD XOR STOP CALLER "},"methodIdentifiers":{"adminTransfer(address)":"9234c1e1","getAdmin()":"6e9960c3","getAdminSlot()":"9ad5c59a","getImplementation()":"aaf10f42","getImplementationSlot()":"7a34c821","upgrade(address)":"0900f010"}}}}}